{
  "_format": "hh-sol-artifact-1",
  "contractName": "MasterChefV2",
  "sourceName": "contracts/MasterChefV2.sol",
  "abi": [
    {
      "inputs": [
        {
          "internalType": "contract IMasterChef",
          "name": "_MASTER_CHEF",
          "type": "address"
        },
        {
          "internalType": "contract IERC20",
          "name": "_sushi",
          "type": "address"
        },
        {
          "internalType": "uint256",
          "name": "_MASTER_PID",
          "type": "uint256"
        }
      ],
      "stateMutability": "nonpayable",
      "type": "constructor"
    },
    {
      "anonymous": false,
      "inputs": [
        {
          "indexed": true,
          "internalType": "address",
          "name": "user",
          "type": "address"
        },
        {
          "indexed": true,
          "internalType": "uint256",
          "name": "pid",
          "type": "uint256"
        },
        {
          "indexed": false,
          "internalType": "uint256",
          "name": "amount",
          "type": "uint256"
        },
        {
          "indexed": true,
          "internalType": "address",
          "name": "to",
          "type": "address"
        }
      ],
      "name": "Deposit",
      "type": "event"
    },
    {
      "anonymous": false,
      "inputs": [
        {
          "indexed": true,
          "internalType": "address",
          "name": "user",
          "type": "address"
        },
        {
          "indexed": true,
          "internalType": "uint256",
          "name": "pid",
          "type": "uint256"
        },
        {
          "indexed": false,
          "internalType": "uint256",
          "name": "amount",
          "type": "uint256"
        },
        {
          "indexed": true,
          "internalType": "address",
          "name": "to",
          "type": "address"
        }
      ],
      "name": "EmergencyWithdraw",
      "type": "event"
    },
    {
      "anonymous": false,
      "inputs": [
        {
          "indexed": true,
          "internalType": "address",
          "name": "user",
          "type": "address"
        },
        {
          "indexed": true,
          "internalType": "uint256",
          "name": "pid",
          "type": "uint256"
        },
        {
          "indexed": false,
          "internalType": "uint256",
          "name": "amount",
          "type": "uint256"
        }
      ],
      "name": "Harvest",
      "type": "event"
    },
    {
      "anonymous": false,
      "inputs": [],
      "name": "LogInit",
      "type": "event"
    },
    {
      "anonymous": false,
      "inputs": [
        {
          "indexed": true,
          "internalType": "uint256",
          "name": "pid",
          "type": "uint256"
        },
        {
          "indexed": false,
          "internalType": "uint256",
          "name": "allocPoint",
          "type": "uint256"
        },
        {
          "indexed": true,
          "internalType": "contract IERC20",
          "name": "lpToken",
          "type": "address"
        },
        {
          "indexed": true,
          "internalType": "contract IRewarder",
          "name": "rewarder",
          "type": "address"
        }
      ],
      "name": "LogPoolAddition",
      "type": "event"
    },
    {
      "anonymous": false,
      "inputs": [
        {
          "indexed": true,
          "internalType": "uint256",
          "name": "pid",
          "type": "uint256"
        },
        {
          "indexed": false,
          "internalType": "uint256",
          "name": "allocPoint",
          "type": "uint256"
        },
        {
          "indexed": true,
          "internalType": "contract IRewarder",
          "name": "rewarder",
          "type": "address"
        },
        {
          "indexed": false,
          "internalType": "bool",
          "name": "overwrite",
          "type": "bool"
        }
      ],
      "name": "LogSetPool",
      "type": "event"
    },
    {
      "anonymous": false,
      "inputs": [
        {
          "indexed": true,
          "internalType": "uint256",
          "name": "pid",
          "type": "uint256"
        },
        {
          "indexed": false,
          "internalType": "uint64",
          "name": "lastRewardBlock",
          "type": "uint64"
        },
        {
          "indexed": false,
          "internalType": "uint256",
          "name": "lpSupply",
          "type": "uint256"
        },
        {
          "indexed": false,
          "internalType": "uint256",
          "name": "accSushiPerShare",
          "type": "uint256"
        }
      ],
      "name": "LogUpdatePool",
      "type": "event"
    },
    {
      "anonymous": false,
      "inputs": [
        {
          "indexed": true,
          "internalType": "address",
          "name": "previousOwner",
          "type": "address"
        },
        {
          "indexed": true,
          "internalType": "address",
          "name": "newOwner",
          "type": "address"
        }
      ],
      "name": "OwnershipTransferred",
      "type": "event"
    },
    {
      "anonymous": false,
      "inputs": [
        {
          "indexed": true,
          "internalType": "address",
          "name": "user",
          "type": "address"
        },
        {
          "indexed": true,
          "internalType": "uint256",
          "name": "pid",
          "type": "uint256"
        },
        {
          "indexed": false,
          "internalType": "uint256",
          "name": "amount",
          "type": "uint256"
        },
        {
          "indexed": true,
          "internalType": "address",
          "name": "to",
          "type": "address"
        }
      ],
      "name": "Withdraw",
      "type": "event"
    },
    {
      "inputs": [],
      "name": "MASTER_CHEF",
      "outputs": [
        {
          "internalType": "contract IMasterChef",
          "name": "",
          "type": "address"
        }
      ],
      "stateMutability": "view",
      "type": "function"
    },
    {
      "inputs": [],
      "name": "MASTER_PID",
      "outputs": [
        {
          "internalType": "uint256",
          "name": "",
          "type": "uint256"
        }
      ],
      "stateMutability": "view",
      "type": "function"
    },
    {
      "inputs": [],
      "name": "SUSHI",
      "outputs": [
        {
          "internalType": "contract IERC20",
          "name": "",
          "type": "address"
        }
      ],
      "stateMutability": "view",
      "type": "function"
    },
    {
      "inputs": [
        {
          "internalType": "uint256",
          "name": "allocPoint",
          "type": "uint256"
        },
        {
          "internalType": "contract IERC20",
          "name": "_lpToken",
          "type": "address"
        },
        {
          "internalType": "contract IRewarder",
          "name": "_rewarder",
          "type": "address"
        }
      ],
      "name": "add",
      "outputs": [],
      "stateMutability": "nonpayable",
      "type": "function"
    },
    {
      "inputs": [
        {
          "internalType": "bytes[]",
          "name": "calls",
          "type": "bytes[]"
        },
        {
          "internalType": "bool",
          "name": "revertOnFail",
          "type": "bool"
        }
      ],
      "name": "batch",
      "outputs": [
        {
          "internalType": "bool[]",
          "name": "successes",
          "type": "bool[]"
        },
        {
          "internalType": "bytes[]",
          "name": "results",
          "type": "bytes[]"
        }
      ],
      "stateMutability": "payable",
      "type": "function"
    },
    {
      "inputs": [],
      "name": "claimOwnership",
      "outputs": [],
      "stateMutability": "nonpayable",
      "type": "function"
    },
    {
      "inputs": [
        {
          "internalType": "uint256",
          "name": "pid",
          "type": "uint256"
        },
        {
          "internalType": "uint256",
          "name": "amount",
          "type": "uint256"
        },
        {
          "internalType": "address",
          "name": "to",
          "type": "address"
        }
      ],
      "name": "deposit",
      "outputs": [],
      "stateMutability": "nonpayable",
      "type": "function"
    },
    {
      "inputs": [
        {
          "internalType": "uint256",
          "name": "pid",
          "type": "uint256"
        },
        {
          "internalType": "address",
          "name": "to",
          "type": "address"
        }
      ],
      "name": "emergencyWithdraw",
      "outputs": [],
      "stateMutability": "nonpayable",
      "type": "function"
    },
    {
      "inputs": [
        {
          "internalType": "uint256",
          "name": "pid",
          "type": "uint256"
        },
        {
          "internalType": "address",
          "name": "to",
          "type": "address"
        }
      ],
      "name": "harvest",
      "outputs": [
        {
          "internalType": "bool",
          "name": "success",
          "type": "bool"
        }
      ],
      "stateMutability": "nonpayable",
      "type": "function"
    },
    {
      "inputs": [],
      "name": "harvestFromMasterChef",
      "outputs": [],
      "stateMutability": "nonpayable",
      "type": "function"
    },
    {
      "inputs": [
        {
          "internalType": "contract IERC20",
          "name": "dummyToken",
          "type": "address"
        }
      ],
      "name": "init",
      "outputs": [],
      "stateMutability": "nonpayable",
      "type": "function"
    },
    {
      "inputs": [
        {
          "internalType": "uint256",
          "name": "",
          "type": "uint256"
        }
      ],
      "name": "lpToken",
      "outputs": [
        {
          "internalType": "contract IERC20",
          "name": "",
          "type": "address"
        }
      ],
      "stateMutability": "view",
      "type": "function"
    },
    {
      "inputs": [
        {
          "internalType": "uint256[]",
          "name": "pids",
          "type": "uint256[]"
        }
      ],
      "name": "massUpdatePools",
      "outputs": [],
      "stateMutability": "nonpayable",
      "type": "function"
    },
    {
      "inputs": [
        {
          "internalType": "uint256",
          "name": "_pid",
          "type": "uint256"
        }
      ],
      "name": "migrate",
      "outputs": [],
      "stateMutability": "nonpayable",
      "type": "function"
    },
    {
      "inputs": [],
      "name": "migrator",
      "outputs": [
        {
          "internalType": "contract IMigratorChef",
          "name": "",
          "type": "address"
        }
      ],
      "stateMutability": "view",
      "type": "function"
    },
    {
      "inputs": [],
      "name": "owner",
      "outputs": [
        {
          "internalType": "address",
          "name": "",
          "type": "address"
        }
      ],
      "stateMutability": "view",
      "type": "function"
    },
    {
      "inputs": [],
      "name": "pendingOwner",
      "outputs": [
        {
          "internalType": "address",
          "name": "",
          "type": "address"
        }
      ],
      "stateMutability": "view",
      "type": "function"
    },
    {
      "inputs": [
        {
          "internalType": "uint256",
          "name": "_pid",
          "type": "uint256"
        },
        {
          "internalType": "address",
          "name": "_user",
          "type": "address"
        }
      ],
      "name": "pendingSushi",
      "outputs": [
        {
          "internalType": "uint256",
          "name": "pending",
          "type": "uint256"
        }
      ],
      "stateMutability": "view",
      "type": "function"
    },
    {
      "inputs": [
        {
          "internalType": "contract IERC20",
          "name": "token",
          "type": "address"
        },
        {
          "internalType": "address",
          "name": "from",
          "type": "address"
        },
        {
          "internalType": "address",
          "name": "to",
          "type": "address"
        },
        {
          "internalType": "uint256",
          "name": "amount",
          "type": "uint256"
        },
        {
          "internalType": "uint256",
          "name": "deadline",
          "type": "uint256"
        },
        {
          "internalType": "uint8",
          "name": "v",
          "type": "uint8"
        },
        {
          "internalType": "bytes32",
          "name": "r",
          "type": "bytes32"
        },
        {
          "internalType": "bytes32",
          "name": "s",
          "type": "bytes32"
        }
      ],
      "name": "permitToken",
      "outputs": [],
      "stateMutability": "nonpayable",
      "type": "function"
    },
    {
      "inputs": [
        {
          "internalType": "uint256",
          "name": "",
          "type": "uint256"
        }
      ],
      "name": "poolInfo",
      "outputs": [
        {
          "internalType": "uint128",
          "name": "accSushiPerShare",
          "type": "uint128"
        },
        {
          "internalType": "uint64",
          "name": "lastRewardBlock",
          "type": "uint64"
        },
        {
          "internalType": "uint64",
          "name": "allocPoint",
          "type": "uint64"
        }
      ],
      "stateMutability": "view",
      "type": "function"
    },
    {
      "inputs": [],
      "name": "poolLength",
      "outputs": [
        {
          "internalType": "uint256",
          "name": "pools",
          "type": "uint256"
        }
      ],
      "stateMutability": "view",
      "type": "function"
    },
    {
      "inputs": [
        {
          "internalType": "uint256",
          "name": "",
          "type": "uint256"
        }
      ],
      "name": "rewarder",
      "outputs": [
        {
          "internalType": "contract IRewarder",
          "name": "",
          "type": "address"
        }
      ],
      "stateMutability": "view",
      "type": "function"
    },
    {
      "inputs": [
        {
          "internalType": "uint256",
          "name": "_pid",
          "type": "uint256"
        },
        {
          "internalType": "uint256",
          "name": "_allocPoint",
          "type": "uint256"
        },
        {
          "internalType": "contract IRewarder",
          "name": "_rewarder",
          "type": "address"
        },
        {
          "internalType": "bool",
          "name": "overwrite",
          "type": "bool"
        }
      ],
      "name": "set",
      "outputs": [],
      "stateMutability": "nonpayable",
      "type": "function"
    },
    {
      "inputs": [
        {
          "internalType": "contract IMigratorChef",
          "name": "_migrator",
          "type": "address"
        }
      ],
      "name": "setMigrator",
      "outputs": [],
      "stateMutability": "nonpayable",
      "type": "function"
    },
    {
      "inputs": [],
      "name": "sushiPerBlock",
      "outputs": [
        {
          "internalType": "uint256",
          "name": "amount",
          "type": "uint256"
        }
      ],
      "stateMutability": "view",
      "type": "function"
    },
    {
      "inputs": [
        {
          "internalType": "address",
          "name": "newOwner",
          "type": "address"
        },
        {
          "internalType": "bool",
          "name": "direct",
          "type": "bool"
        },
        {
          "internalType": "bool",
          "name": "renounce",
          "type": "bool"
        }
      ],
      "name": "transferOwnership",
      "outputs": [],
      "stateMutability": "nonpayable",
      "type": "function"
    },
    {
      "inputs": [
        {
          "internalType": "uint256",
          "name": "pid",
          "type": "uint256"
        }
      ],
      "name": "updatePool",
      "outputs": [
        {
          "components": [
            {
              "internalType": "uint128",
              "name": "accSushiPerShare",
              "type": "uint128"
            },
            {
              "internalType": "uint64",
              "name": "lastRewardBlock",
              "type": "uint64"
            },
            {
              "internalType": "uint64",
              "name": "allocPoint",
              "type": "uint64"
            }
          ],
          "internalType": "struct MasterChefV2.PoolInfo",
          "name": "pool",
          "type": "tuple"
        }
      ],
      "stateMutability": "nonpayable",
      "type": "function"
    },
    {
      "inputs": [
        {
          "internalType": "uint256",
          "name": "",
          "type": "uint256"
        },
        {
          "internalType": "address",
          "name": "",
          "type": "address"
        }
      ],
      "name": "userInfo",
      "outputs": [
        {
          "internalType": "uint256",
          "name": "amount",
          "type": "uint256"
        },
        {
          "internalType": "int256",
          "name": "rewardDebt",
          "type": "int256"
        }
      ],
      "stateMutability": "view",
      "type": "function"
    },
    {
      "inputs": [
        {
          "internalType": "uint256",
          "name": "pid",
          "type": "uint256"
        },
        {
          "internalType": "uint256",
          "name": "amount",
          "type": "uint256"
        },
        {
          "internalType": "address",
          "name": "to",
          "type": "address"
        }
      ],
      "name": "withdraw",
      "outputs": [],
      "stateMutability": "nonpayable",
      "type": "function"
    }
  ],
  "bytecode": "0x60e06040523480156200001157600080fd5b5060405162002dc438038062002dc4833981016040819052620000349162000097565b600080546001600160a01b0319163390811782556040519091907f8be0079c531659141344cd1fd0a4f28419497f9722a3daafe3b4186f6b6457e0908290a36001600160601b0319606093841b81166080529190921b1660a05260c052620000f7565b600080600060608486031215620000ac578283fd5b8351620000b981620000de565b6020850151909350620000cc81620000de565b80925050604084015190509250925092565b6001600160a01b0381168114620000f457600080fd5b50565b60805160601c60a05160601c60c051612c6d6200015760003980610d0c52806111f052806114fb5280611b27525080610824528061185f525080610c4b5280610cdf52806111c35280611a505280611afa5280611d6e5250612c6d6000f3fe6080604052600436106101c25760003560e01c806361621aaa116100f757806393f1a40b11610095578063c346253d11610064578063c346253d146104eb578063d2423b511461050b578063e30c39781461052c578063edd8b17014610541576101c2565b806393f1a40b14610473578063ab560e10146104a1578063ab7de098146104b6578063b0bcf42a146104d6576101c2565b80637cd07e47116100d15780637cd07e471461040957806388bba42f1461041e5780638da5cb5b1461043e5780638dbdbe6d14610453576101c2565b806361621aaa146103a757806378ed5d1f146103bc5780637c516e94146103e9576101c2565b806323cf3118116101645780634e71e0c81161013e5780634e71e0c8146103305780634f70b15a1461034557806351eb05a61461035a57806357a5b58c14610387576101c2565b806323cf3118146102d05780632f940c70146102f0578063454b060814610310576101c2565b80631526fe27116101a05780631526fe271461023457806318fccc7614610263578063195426ec1461029057806319ab453c146102b0576101c2565b8063078dfbe7146101c7578063081e3eda146101e95780630ad58d2f14610214575b600080fd5b3480156101d357600080fd5b506101e76101e23660046121f4565b610556565b005b3480156101f557600080fd5b506101fe610645565b60405161020b9190612b0b565b60405180910390f35b34801561022057600080fd5b506101e761022f366004612513565b61064b565b34801561024057600080fd5b5061025461024f36600461247e565b610748565b60405161020b93929190612ae1565b34801561026f57600080fd5b5061028361027e3660046124ae565b61078a565b60405161020b919061270d565b34801561029c57600080fd5b506101fe6102ab3660046124ae565b610977565b3480156102bc57600080fd5b506101e76102cb3660046122e2565b610b74565b3480156102dc57600080fd5b506101e76102eb3660046122e2565b610d95565b3480156102fc57600080fd5b506101e761030b3660046124ae565b610de1565b34801561031c57600080fd5b506101e761032b36600461247e565b610e73565b34801561033c57600080fd5b506101e761111f565b34801561035157600080fd5b506101e76111ac565b34801561036657600080fd5b5061037a61037536600461247e565b61124f565b60405161020b9190612aa8565b34801561039357600080fd5b506101e76103a2366004612287565b6114c9565b3480156103b357600080fd5b506101fe6114f9565b3480156103c857600080fd5b506103dc6103d736600461247e565b61151d565b60405161020b91906125e1565b3480156103f557600080fd5b506101e761040436600461231a565b611544565b34801561041557600080fd5b506103dc6115b8565b34801561042a57600080fd5b506101e7610439366004612540565b6115c7565b34801561044a57600080fd5b506103dc611734565b34801561045f57600080fd5b506101e761046e366004612513565b611743565b34801561047f57600080fd5b5061049361048e3660046124ae565b611839565b60405161020b929190612b43565b3480156104ad57600080fd5b506103dc61185d565b3480156104c257600080fd5b506101e76104d13660046124dd565b611881565b3480156104e257600080fd5b506101fe611a4c565b3480156104f757600080fd5b506103dc61050636600461247e565b611bc0565b61051e61051936600461223e565b611bcd565b60405161020b929190612673565b34801561053857600080fd5b506103dc611d5d565b34801561054d57600080fd5b506103dc611d6c565b6000546001600160a01b031633146105895760405162461bcd60e51b815260040161058090612920565b60405180910390fd5b8115610624576001600160a01b0383161515806105a35750805b6105bf5760405162461bcd60e51b81526004016105809061283a565b600080546040516001600160a01b03808716939216917f8be0079c531659141344cd1fd0a4f28419497f9722a3daafe3b4186f6b6457e091a3600080546001600160a01b0385166001600160a01b031991821617909155600180549091169055610640565b600180546001600160a01b0319166001600160a01b0385161790555b505050565b60035490565b61065361218c565b61065c8461124f565b600085815260066020908152604080832033845290915290208151919250906106ae9064e8d4a510009061069a9087906001600160801b0316611d90565b816106a157fe5b6001840154919004611dcd565b600182015580546106bf9085611e1a565b81600001819055506106f58385600488815481106106d957fe5b6000918252602090912001546001600160a01b03169190611e3d565b826001600160a01b031685336001600160a01b03167f8166bf25f8a2b7ed3c85049207da4358d16edbed977d23fa2ee6f0dde3ec2132876040516107399190612b0b565b60405180910390a45050505050565b6003818154811061075557fe5b6000918252602090912001546001600160801b03811691506001600160401b03600160801b8204811691600160c01b90041683565b600061079461218c565b61079d8461124f565b6000858152600660209081526040808320338452909152812082518154939450909264e8d4a51000916107d991906001600160801b0316611d90565b816107e057fe5b04905060006108046107ff846001015484611dcd90919063ffffffff16565b611f2b565b90508061081057600094505b6001830182905561084b6001600160a01b037f0000000000000000000000000000000000000000000000000000000000000000168783611e3d565b60006005888154811061085a57fe5b6000918252602090912001546001600160a01b03169050801561092a57806001600160a01b03166113885a0363bb6cc2ef60e01b8a33866040516024016108a393929190612b14565b60408051601f198184030181529181526020820180516001600160e01b03166001600160e01b03199094169390931790925290516108e191906125c5565b60006040518083038160008787f1925050503d806000811461091f576040519150601f19603f3d011682016040523d82523d6000602084013e610924565b606091505b50909650505b87336001600160a01b03167f71bab65ced2e5750775a0613be067df48ef06cf92a496ebf7663ae0660924954846040516109649190612b0b565b60405180910390a3505050505092915050565b600061098161218c565b6003848154811061098e57fe5b600091825260208083206040805160608101825291909301546001600160801b0380821683526001600160401b03600160801b8304811684860152600160c01b90920490911682850152888552600683528385206001600160a01b0389168652909252918320825160048054949650919492169288908110610a0c57fe5b6000918252602090912001546040516370a0823160e01b81526001600160a01b03909116906370a0823190610a459030906004016125e1565b60206040518083038186803b158015610a5d57600080fd5b505afa158015610a71573d6000803e3d6000fd5b505050506040513d601f19601f82011682018060405250810190610a959190612496565b905083602001516001600160401b031643118015610ab257508015155b15610b3b576000610ad985602001516001600160401b031643611e1a90919063ffffffff16565b90506000600754610b0987604001516001600160401b0316610b03610afc611a4c565b8690611d90565b90611d90565b81610b1057fe5b049050610b3683610b268364e8d4a51000611d90565b81610b2d57fe5b86919004611f51565b935050505b60018301548354610b69916107ff9164e8d4a5100090610b5b9087611d90565b81610b6257fe5b0490611dcd565b979650505050505050565b6040516370a0823160e01b81526000906001600160a01b038316906370a0823190610ba39033906004016125e1565b60206040518083038186803b158015610bbb57600080fd5b505afa158015610bcf573d6000803e3d6000fd5b505050506040513d601f19601f82011682018060405250810190610bf39190612496565b905080610c125760405162461bcd60e51b81526004016105809061277f565b610c276001600160a01b038316333084611f74565b60405163095ea7b360e01b81526001600160a01b0383169063095ea7b390610c75907f000000000000000000000000000000000000000000000000000000000000000090859060040161265a565b602060405180830381600087803b158015610c8f57600080fd5b505af1158015610ca3573d6000803e3d6000fd5b505050506040513d601f19601f82011682018060405250810190610cc791906122c6565b50604051631c57762b60e31b81526001600160a01b037f0000000000000000000000000000000000000000000000000000000000000000169063e2bbb15890610d36907f0000000000000000000000000000000000000000000000000000000000000000908590600401612b43565b600060405180830381600087803b158015610d5057600080fd5b505af1158015610d64573d6000803e3d6000fd5b50506040517f98a9bd3b7a617581fc53b1e2992534e0e0cb5091c9d44aa1a7fc978f706caa83925060009150a15050565b6000546001600160a01b03163314610dbf5760405162461bcd60e51b815260040161058090612920565b600280546001600160a01b0319166001600160a01b0392909216919091179055565b600082815260066020908152604080832033845290915281208054828255600182019290925560048054919291610e21918591849190889081106106d957fe5b826001600160a01b031684336001600160a01b03167f2cac5e20e1541d836381527a43f651851e302817b71dc8e810284e69210c1c6b84604051610e659190612b0b565b60405180910390a450505050565b6002546001600160a01b0316610e9b5760405162461bcd60e51b8152600401610580906129c1565b600060048281548110610eaa57fe5b60009182526020822001546040516370a0823160e01b81526001600160a01b03909116925082906370a0823190610ee59030906004016125e1565b60206040518083038186803b158015610efd57600080fd5b505afa158015610f11573d6000803e3d6000fd5b505050506040513d601f19601f82011682018060405250810190610f359190612496565b60025460405163095ea7b360e01b81529192506001600160a01b038085169263095ea7b392610f6a921690859060040161265a565b602060405180830381600087803b158015610f8457600080fd5b505af1158015610f98573d6000803e3d6000fd5b505050506040513d601f19601f82011682018060405250810190610fbc91906122c6565b5060025460405163ce5494bb60e01b81526000916001600160a01b03169063ce5494bb90610fee9086906004016125e1565b602060405180830381600087803b15801561100857600080fd5b505af115801561101c573d6000803e3d6000fd5b505050506040513d601f19601f8201168201806040525081019061104091906122fe565b6040516370a0823160e01b81529091506001600160a01b038216906370a082319061106f9030906004016125e1565b60206040518083038186803b15801561108757600080fd5b505afa15801561109b573d6000803e3d6000fd5b505050506040513d601f19601f820116820180604052508101906110bf9190612496565b82146110dd5760405162461bcd60e51b815260040161058090612869565b80600485815481106110eb57fe5b9060005260206000200160006101000a8154816001600160a01b0302191690836001600160a01b0316021790555050505050565b6001546001600160a01b031633811461114a5760405162461bcd60e51b815260040161058090612955565b600080546040516001600160a01b03808516939216917f8be0079c531659141344cd1fd0a4f28419497f9722a3daafe3b4186f6b6457e091a3600080546001600160a01b039092166001600160a01b0319928316179055600180549091169055565b604051631c57762b60e31b81526001600160a01b037f0000000000000000000000000000000000000000000000000000000000000000169063e2bbb1589061121b907f000000000000000000000000000000000000000000000000000000000000000090600090600401612b43565b600060405180830381600087803b15801561123557600080fd5b505af1158015611249573d6000803e3d6000fd5b50505050565b61125761218c565b6003828154811061126457fe5b60009182526020918290206040805160608101825292909101546001600160801b03811683526001600160401b03600160801b82048116948401859052600160c01b909104169082015291504311156114c4576000600483815481106112c657fe5b6000918252602090912001546040516370a0823160e01b81526001600160a01b03909116906370a08231906112ff9030906004016125e1565b60206040518083038186803b15801561131757600080fd5b505afa15801561132b573d6000803e3d6000fd5b505050506040513d601f19601f8201168201806040525081019061134f9190612496565b905080156113e857600061137983602001516001600160401b031643611e1a90919063ffffffff16565b9050600060075461139c85604001516001600160401b0316610b03610afc611a4c565b816113a357fe5b0490506113da6113c9846113bc8464e8d4a51000611d90565b816113c357fe5b04612065565b85516001600160801b03169061208e565b6001600160801b0316845250505b6113f1436120bd565b6001600160401b03166020830152600380548391908590811061141057fe5b6000918252602091829020835191018054848401516040958601516001600160801b03199092166001600160801b039094169390931767ffffffffffffffff60801b1916600160801b6001600160401b0394851602176001600160c01b0316600160c01b93909116929092029190911790558301518351915185927f0fc9545022a542541ad085d091fb09a2ab36fee366a4576ab63714ea907ad353926114ba9290918691612b51565b60405180910390a2505b919050565b8060005b81811015611249576114f08484838181106114e457fe5b9050602002013561124f565b506001016114cd565b7f000000000000000000000000000000000000000000000000000000000000000081565b6004818154811061152a57fe5b6000918252602090912001546001600160a01b0316905081565b60405163d505accf60e01b81526001600160a01b0389169063d505accf9061157c908a908a908a908a908a908a908a90600401612619565b600060405180830381600087803b15801561159657600080fd5b505af11580156115aa573d6000803e3d6000fd5b505050505050505050505050565b6002546001600160a01b031681565b6000546001600160a01b031633146115f15760405162461bcd60e51b815260040161058090612920565b6116308361162a6003878154811061160557fe5b60009182526020909120015460075490600160c01b90046001600160401b0316611e1a565b90611f51565b60075561163c836120bd565b6003858154811061164957fe5b9060005260206000200160000160186101000a8154816001600160401b0302191690836001600160401b0316021790555080156116bd57816005858154811061168e57fe5b9060005260206000200160006101000a8154816001600160a01b0302191690836001600160a01b031602179055505b806116e957600584815481106116cf57fe5b6000918252602090912001546001600160a01b03166116eb565b815b6001600160a01b0316847f95895a6ab1df54420d241b55243258a33e61b2194db66c1179ec521aae8e18658584604051611726929190612b33565b60405180910390a350505050565b6000546001600160a01b031681565b61174b61218c565b6117548461124f565b60008581526006602090815260408083206001600160a01b038716845290915290208054919250906117869085611f51565b815581516117bd9064e8d4a51000906117a99087906001600160801b0316611d90565b816117b057fe5b60018401549190046120e6565b81600101819055506117f5333086600489815481106117d857fe5b6000918252602090912001546001600160a01b0316929190611f74565b826001600160a01b031685336001600160a01b03167f02d7e648dd130fc184d383e55bb126ac4c9c60e8f94bf05acdf557ba2d540b47876040516107399190612b0b565b60066020908152600092835260408084209091529082529020805460019091015482565b7f000000000000000000000000000000000000000000000000000000000000000081565b6000546001600160a01b031633146118ab5760405162461bcd60e51b815260040161058090612920565b60075443906118ba9085611f51565b6007556004805460018181019092557f8a35acfbc15ff81a39ae7d344fd709f28e8600b4aa8c65c6b64bfe7fe36bd19b0180546001600160a01b038087166001600160a01b03199283161790925560058054938401815560009081527f036b6384b5eca791c62761152d0c79bb0604c104a5fb6f4eb0703f3154bb3db0909301805492861692909116919091179055604080516060810190915290815260039060208101611967846120bd565b6001600160401b0316815260200161197e876120bd565b6001600160401b039081169091528254600181810185556000948552602094859020845192018054958501516040909501518416600160c01b026001600160c01b0395909416600160801b0267ffffffffffffffff60801b196001600160801b039094166001600160801b0319909716969096179290921694909417929092161790556004546001600160a01b038085169290861691611a1d91611e1a565b7f81ee0f8c5c46e2cb41984886f77a84181724abb86c32a5f6de539b07509d45e587604051610e659190612b0b565b60007f00000000000000000000000000000000000000000000000000000000000000006001600160a01b03166317caf6f16040518163ffffffff1660e01b815260040160206040518083038186803b158015611aa757600080fd5b505afa158015611abb573d6000803e3d6000fd5b505050506040513d601f19601f82011682018060405250810190611adf9190612496565b604051631526fe2760e01b8152611bb3906001600160a01b037f00000000000000000000000000000000000000000000000000000000000000001690631526fe2790611b4f907f000000000000000000000000000000000000000000000000000000000000000090600401612b0b565b60806040518083038186803b158015611b6757600080fd5b505afa158015611b7b573d6000803e3d6000fd5b505050506040513d601f19601f82011682018060405250810190611b9f919061242c565b6020015168056bc75e2d6310000090611d90565b81611bba57fe5b04905090565b6005818154811061152a57fe5b606080836001600160401b0381118015611be657600080fd5b50604051908082528060200260200182016040528015611c10578160200160208202803683370190505b509150836001600160401b0381118015611c2957600080fd5b50604051908082528060200260200182016040528015611c5d57816020015b6060815260200190600190039081611c485790505b50905060005b84811015611d54576000606030888885818110611c7c57fe5b9050602002810190611c8e9190612b7b565b604051611c9c9291906125b5565b600060405180830381855af49150503d8060008114611cd7576040519150601f19603f3d011682016040523d82523d6000602084013e611cdc565b606091505b50915091508180611ceb575085155b611cf48261212c565b90611d125760405162461bcd60e51b81526004016105809190612718565b5081858481518110611d2057fe5b60200260200101901515908115158152505080848481518110611d3f57fe5b60209081029190910101525050600101611c63565b50935093915050565b6001546001600160a01b031681565b7f000000000000000000000000000000000000000000000000000000000000000081565b6000811580611dab57505080820282828281611da857fe5b04145b611dc75760405162461bcd60e51b815260040161058090612a71565b92915050565b6000818303818312801590611de25750838113155b80611df75750600083128015611df757508381135b611e135760405162461bcd60e51b8152600401610580906129f8565b9392505050565b80820382811115611dc75760405162461bcd60e51b81526004016105809061272b565b60006060846001600160a01b031663a9059cbb8585604051602401611e6392919061265a565b6040516020818303038152906040529060e01b6020820180516001600160e01b038381831617835250505050604051611e9c91906125c5565b6000604051808303816000865af19150503d8060008114611ed9576040519150601f19603f3d011682016040523d82523d6000602084013e611ede565b606091505b5091509150818015611f08575080511580611f08575080806020019051810190611f0891906122c6565b611f245760405162461bcd60e51b8152600401610580906127c2565b5050505050565b600080821215611f4d5760405162461bcd60e51b81526004016105809061275a565b5090565b81810181811015611dc75760405162461bcd60e51b8152600401610580906128e9565b60006060856001600160a01b03166323b872dd868686604051602401611f9c939291906125f5565b6040516020818303038152906040529060e01b6020820180516001600160e01b038381831617835250505050604051611fd591906125c5565b6000604051808303816000865af19150503d8060008114612012576040519150601f19603f3d011682016040523d82523d6000602084013e612017565b606091505b509150915081801561204157508051158061204157508080602001905181019061204191906122c6565b61205d5760405162461bcd60e51b815260040161058090612a3c565b505050505050565b60006001600160801b03821115611f4d5760405162461bcd60e51b8152600401610580906128b2565b8181016001600160801b038083169082161015611dc75760405162461bcd60e51b8152600401610580906128e9565b60006001600160401b03821115611f4d5760405162461bcd60e51b81526004016105809061298a565b60008282018183128015906120fb5750838112155b80612110575060008312801561211057508381125b611e135760405162461bcd60e51b8152600401610580906127f9565b6060604482511015612172575060408051808201909152601d81527f5472616e73616374696f6e2072657665727465642073696c656e746c7900000060208201526114c4565b60048201915081806020019051810190611dc791906123a1565b604080516060810182526000808252602082018190529181019190915290565b60008083601f8401126121bd578182fd5b5081356001600160401b038111156121d3578182fd5b60208301915083602080830285010111156121ed57600080fd5b9250929050565b600080600060608486031215612208578283fd5b833561221381612c11565b9250602084013561222381612c29565b9150604084013561223381612c29565b809150509250925092565b600080600060408486031215612252578283fd5b83356001600160401b03811115612267578384fd5b612273868287016121ac565b909450925050602084013561223381612c29565b60008060208385031215612299578182fd5b82356001600160401b038111156122ae578283fd5b6122ba858286016121ac565b90969095509350505050565b6000602082840312156122d7578081fd5b8151611e1381612c29565b6000602082840312156122f3578081fd5b8135611e1381612c11565b60006020828403121561230f578081fd5b8151611e1381612c11565b600080600080600080600080610100898b031215612336578384fd5b883561234181612c11565b9750602089013561235181612c11565b9650604089013561236181612c11565b9550606089013594506080890135935060a089013560ff81168114612384578384fd5b979a969950949793969295929450505060c08201359160e0013590565b6000602082840312156123b2578081fd5b81516001600160401b03808211156123c8578283fd5b818401915084601f8301126123db578283fd5b8151818111156123e9578384fd5b6123fc601f8201601f1916602001612bbf565b9150808252856020828501011115612412578384fd5b612423816020840160208601612be5565b50949350505050565b60006080828403121561243d578081fd5b6124476080612bbf565b825161245281612c11565b808252506020830151602082015260408301516040820152606083015160608201528091505092915050565b60006020828403121561248f578081fd5b5035919050565b6000602082840312156124a7578081fd5b5051919050565b600080604083850312156124c0578182fd5b8235915060208301356124d281612c11565b809150509250929050565b6000806000606084860312156124f1578081fd5b83359250602084013561250381612c11565b9150604084013561223381612c11565b600080600060608486031215612527578081fd5b8335925060208401359150604084013561223381612c11565b60008060008060808587031215612555578182fd5b8435935060208501359250604085013561256e81612c11565b9150606085013561257e81612c29565b939692955090935050565b600081518084526125a1816020860160208601612be5565b601f01601f19169290920160200192915050565b6000828483379101908152919050565b600082516125d7818460208701612be5565b9190910192915050565b6001600160a01b0391909116815260200190565b6001600160a01b039384168152919092166020820152604081019190915260600190565b6001600160a01b0397881681529590961660208601526040850193909352606084019190915260ff16608083015260a082015260c081019190915260e00190565b6001600160a01b03929092168252602082015260400190565b604080825283519082018190526000906020906060840190828701845b828110156126ae578151151584529284019290840190600101612690565b505050838103828501528085516126c58184612b0b565b91508192508381028201848801865b838110156126fe5785830385526126ec838351612589565b948701949250908601906001016126d4565b50909998505050505050505050565b901515815260200190565b600060208252611e136020830184612589565b602080825260159082015274426f72696e674d6174683a20556e646572666c6f7760581b604082015260600190565b6020808252600b908201526a0496e7465676572203c20360ac1b604082015260600190565b60208082526023908201527f4d61737465724368656656323a2042616c616e6365206d75737420657863656560408201526206420360ec1b606082015260800190565b6020808252601c908201527f426f72696e6745524332303a205472616e73666572206661696c656400000000604082015260600190565b60208082526021908201527f5369676e6564536166654d6174683a206164646974696f6e206f766572666c6f6040820152607760f81b606082015260800190565b6020808252601590820152744f776e61626c653a207a65726f206164647265737360581b604082015260600190565b60208082526029908201527f4d61737465724368656656323a206d696772617465642062616c616e6365206d6040820152680eae6e840dac2e8c6d60bb1b606082015260800190565b6020808252601c908201527f426f72696e674d6174683a2075696e74313238204f766572666c6f7700000000604082015260600190565b60208082526018908201527f426f72696e674d6174683a20416464204f766572666c6f770000000000000000604082015260600190565b6020808252818101527f4f776e61626c653a2063616c6c6572206973206e6f7420746865206f776e6572604082015260600190565b6020808252818101527f4f776e61626c653a2063616c6c657220213d2070656e64696e67206f776e6572604082015260600190565b6020808252601b908201527f426f72696e674d6174683a2075696e743634204f766572666c6f770000000000604082015260600190565b6020808252601d908201527f4d61737465724368656656323a206e6f206d69677261746f7220736574000000604082015260600190565b60208082526024908201527f5369676e6564536166654d6174683a207375627472616374696f6e206f766572604082015263666c6f7760e01b606082015260800190565b6020808252818101527f426f72696e6745524332303a205472616e7366657246726f6d206661696c6564604082015260600190565b60208082526018908201527f426f72696e674d6174683a204d756c204f766572666c6f770000000000000000604082015260600190565b81516001600160801b031681526020808301516001600160401b0390811691830191909152604092830151169181019190915260600190565b6001600160801b039390931683526001600160401b03918216602084015216604082015260600190565b90815260200190565b9283526001600160a01b03919091166020830152604082015260600190565b9182521515602082015260400190565b918252602082015260400190565b6001600160401b0393909316835260208301919091526001600160801b0316604082015260600190565b6000808335601e19843603018112612b91578283fd5b8301803591506001600160401b03821115612baa578283fd5b6020019150368190038213156121ed57600080fd5b6040518181016001600160401b0381118282101715612bdd57600080fd5b604052919050565b60005b83811015612c00578181015183820152602001612be8565b838111156112495750506000910152565b6001600160a01b0381168114612c2657600080fd5b50565b8015158114612c2657600080fdfea2646970667358221220ff12adedb9399263e189ce2aeddc057a44183277674b66dd1348d6544e6dcb1e64736f6c634300060c0033",
  "linkReferences": {},
  "deployedLinkReferences": {}
}