{
  "_format": "hh-sol-artifact-1",
  "contractName": "BoringOwnableData",
  "sourceName": "@boringcrypto/boring-solidity/contracts/BoringOwnable.sol",
  "abi": [
    {
      "inputs": [],
      "name": "owner",
      "outputs": [
        {
          "internalType": "address",
          "name": "",
          "type": "address"
        }
      ],
      "stateMutability": "view",
      "type": "function"
    },
    {
      "inputs": [],
      "name": "pendingOwner",
      "outputs": [
        {
          "internalType": "address",
          "name": "",
          "type": "address"
        }
      ],
      "stateMutability": "view",
      "type": "function"
    }
  ],
  "bytecode": "0x6080604052348015600f57600080fd5b5060b38061001e6000396000f3fe6080604052348015600f57600080fd5b506004361060325760003560e01c80638da5cb5b146037578063e30c3978146059575b600080fd5b603d605f565b604080516001600160a01b039092168252519081900360200190f35b603d606e565b6000546001600160a01b031681565b6001546001600160a01b03168156fea2646970667358221220fd8a7ff2b5626244d4c76a76f82ea6e1140ee63239ecd9bccd3cb2cd1a12e41e64736f6c634300060c0033",
  "linkReferences": {},
  "deployedLinkReferences": {}
}